:020000040800F2
:10000000005000201D050008A9030008AB030008EC
:10001000AD030008AF030008B103000800000000B2
:10002000000000000000000000000000B303000812
:10003000B503000800000000B7030008B90300087A
:1000400065050008650500086505000865050008E8
:1000500065050008650500086505000865050008D8
:1000600065050008650500086505000865050008C8
:100070006505000865050008C1030008D1030008F4
:1000800065050008650500086505000865050008A8
:100090006505000865050008650500086505000898
:1000A0006505000865050008650500086505000888
:1000B0006505000865050008650500086505000878
:1000C0006505000865050008650500086505000868
:1000D00065050008E10300086505000865050008DE
:1000E00065050008650500086505000800000000BA
:1000F0000000000000000000000000000000000000
:0C01000000000000000000005FF808F1A3
:10010C0010B5054C237833B9044B13B10448AFF345
:10011C0000800123237010BD3C040020000000006F
:10012C003421000808B5034B1BB103490348AFF356
:10013C00008008BD000000004004002034210008AD
:10014C0000B583B00E4B5A6942F001025A615B69EB
:10015C0003F001030193019B002211460E2000F0D5
:10016C00E7FC0E2000F018FD002203210F2000F008
:10017C00DFFC0F2000F010FD03B05DF804FB00BFA6
:10018C0000100240F0B589B0002404940594069444
:10019C000794204B9A6942F010029A619A6902F016
:1001AC0010020192019A9A6942F020029A619A69AE
:1001BC0002F020020292029A9A6942F004029A61B9
:1001CC009B6903F004030393039B134F22464FF4E4
:1001DC000051384600F088FF104D22461C2128465D
:1001EC0000F082FF4FF40053049301260596069409
:1001FC000223079304A9384600F066FE1C230493DF
:10020C00059606940323079304A9284600F05CFE88
:10021C0009B0F0BD00100240001001400008014080
:10022C0030B591B0002409940B940C940194029471
:10023C00039404940594012206924FF4803307939F
:10024C0008940A9202250D950E934FF4E0130F9328
:10025C0006A800F065FF0F230193029503944FF459
:10026C00806304930594294601A801F097F911B015
:10027C0030BD08B500F012FCFFF7D2FFFFF782FF8C
:10028C00FFF75EFF00F00CF800F0AEF800F08EF90E
:10029C0000F064F9FEE708B500F06CF908BD704792
:1002AC0008B50E480E4B03604FF482734360002375
:1002BC008360C360036143614FF40072826130223A
:1002CC00C2610362436283620A23C36201F0BCFA17
:1002DC0000B908BDFFF7E3FFFBE700BF580400209F
:1002EC000030014010B586B00023029303930493B1
:1002FC0005930268164B9A4201D006B010BD03F567
:10030C0060439A6942F480529A619A6902F480526D
:10031C000092009A9A6942F004029A619B6903F078
:10032C0004030193019BA023029302230393032351
:10033C000593084C02A9204600F0C6FD4023029309
:10034C0000230393049302A9204600F0BDFDD4E7DB
:10035C00003001400008014082B00E4B9A6942F017
:10036C0001029A619A6902F001020092009ADA691C
:10037C0042F08052DA61DB6903F080530193019BF8
:10038C00054A536823F0E06343F00073536002B0F6
:10039C00704700BF00100240000001407047FEE7AC
:1003AC00FEE7FEE7FEE770477047704708B500F0C0
:1003BC0087FB08BD08B5024800F0E4FC08BD00BF8F
:1003CC00F404002008B5024800F0DCFC08BD00BFB6
:1003DC00B004002008B5024801F026FD08BD00BF9E
:1003EC00380500207047000008B50A480A4B036026
:1003FC000A4B436000238360C36003610C2242619B
:10040C008361C36101F0E2FB00B908BDFFF747FF50
:10041C00FBE700BF380500200038014040420F00C8
:10042C0070B586B00023029303930493059302687E
:10043C00314B9A4201D006B070BD044603F55843C7
:10044C009A6942F480429A619A6902F4804200925D
:10045C00009A9A6942F004029A619B6903F00403C2
:10046C000193019B4FF40073029302230393032324
:10047C000593224E02A9304600F026FD4FF480630E
:10048C00029300250395049502A9304600F01CFD4B
:10049C001B481C4B0360456085608023C36005616D
:1004AC00456120238361C56100F0B0FBF0B9144BAA
:1004BC0063635C621448154B036010234360002394
:1004CC0083608022C260036143618361C36100F079
:1004DC009DFB70B90C4B23635C6200220321252029
:1004EC0000F026FB252000F057FBA4E7FFF7D7FE12
:1004FC00DDE7FFF7D4FEEDE70038014000080140CE
:10050C00B004002058000240F404002044000240D3
:10051C00002103E00B4B5B58435004310A480B4B52
:10052C0042189A42F6D30A4A02E0002342F8043BEE
:10053C00084B9A42F9D3FFF755FF01F011FDFFF775
:10054C0098FE704788210008000000203C04002021
:10055C003C040020A0110020FEE7000008B54FF479
:10056C0080620249024801F061FB08BD7805002059
:10057C003805002010B582B00A4C4FF48062214639
:10058C00094801F053FB40230093802322460021AD
:10059C00084600F065F800F012F800F00BF802B015
:1005AC0010BD00BF780500203805002008B500F00C
:1005BC0049F808BD08B5002000F034F808BD08B5AE
:1005CC0000F02CF808BD007870470000064B1B7833
:1005DC0023B1064B03EBC010405C7047044B03EB9C
:1005EC00C010405C704700BF040000207809002058
:1005FC00780D0020064B1B7823B1064B03EBC01083
:10060C0042547047044B03EBC0104254704700BF78
:10061C000400002078090020780D002008B500F0B7
:10062C0017F808BD08B501464FF48062014801F087
:10063C00BBFC08BD78090020014B1878704700BF3F
:10064C000500002008B500F035F900F0A9F908BD47
:10065C0008B5024800F068F908BD00BF7809002011
:10066C002DE9F04F85B0074601929DF8382081EABC
:10067C00E17AAAEBE17A0AF0070A084600291CDBAA
:10068C00C01000904FEAD20B9946FB4200F1D28089
:10069C007F2F00F3CF80CA4200F1CC803F2900F3BA
:1006AC00C98000290BDB12F0070F01D00BF1010BF5
:1006BC004FF00008CDF808B0AFE0C81DE0E7431ECE
:1006CC000093CAF1080AEEE7FFF7B6FF012817D02E
:1006DC00FFF7B2FF48BB29463046FFF777FF83464A
:1006EC0008FB0940019B1844FFF76DFF00FA0AF262
:1006FC002BEA0202D2B229463046FFF77BFF4BE0D1
:10070C0029463046FFF762FF834608FB0940019BF0
:10071C001844FFF758FF00FA0AF242EA0B02D2B271
:10072C0029463046FFF766FF36E029463046FFF78C
:10073C004DFF834608FB0940019B1844FFF743FF1C
:10074C0000FA0AF282EA0B02D2B229463046FFF7CF
:10075C0051FF21E006F1010B29465846FFF736FF01
:10076C00039008FB0940019B1844FFF72CFFCAF1CA
:10077C00080240FA02F2039B1A43D2B229465846A9
:10078C00FFF738FF0134A14545DDE5197F2D42DC2B
:10079C00002DF7DB002E97DABAF1000FF2D0062EFF
:1007AC00F0DCFFF749FF0128D4D0FFF745FFC8B9AB
:1007BC0006F1010B29465846FFF708FF039008FB8A
:1007CC000940019B1844FFF7FEFECAF1080240FAEB
:1007DC0002F2039B23EA0202D2B229465846FFF7E3
:1007EC0009FFCFE706F1010B29465846FFF7EEFE4D
:1007FC00039008FB0940019B1844FFF7E4FECAF183
:10080C00080240FA02F2039B5A40D2B229465846DB
:10081C00FFF7F0FEB6E708F10108029B984509DAEC
:10082C00009B08EB0306072E04DCB6F1FF3FF2DB5E
:10083C000024A8E705B0BDE8F08F000008B5002241
:10084C001021024800F050FC08BD00BF0008014018
:10085C0008B501221021024800F046FC08BD00BF7B
:10086C000008014008B500220821024800F03CFCB9
:10087C0008BD00BF0008014008B50122082102484C
:10088C0000F032FC08BD00BF0008014008B5012291
:10089C000421024800F028FC08BD00BF00080140FC
:1008AC0008B500220421024800F01EFC08BD00BF60
:1008BC000008014008B5FFF7CBFF642000F012F9E7
:1008CC00FFF7BCFF642000F00DF9FFF7C1FF08BD76
:1008DC0000B583B08DF807000A2301220DF1070142
:1008EC00024801F00CF803B05DF804FB580400203A
:1008FC0010B50446FFF7B6FFFFF7D2FF2046FFF70F
:10090C00E7FFFFF7C3FFFFF7B7FF10BD10B50446B5
:10091C00FFF7B2FFFFF7C4FF2046FFF7D9FFFFF741
:10092C00B5FFFFF7A9FF10BD70B50446002601E026
:10093C000136F6B2072E15D8A6F15000C0B2FFF75B
:10094C00D7FF0020FFF7D4FF1020FFF7D1FF0025C1
:10095C0015F0800FECD114F8010BFFF7D7FF013520
:10096C00EDB2F5E770BD38B5002501E00135EDB20B
:10097C00072D14D8A5F15000C0B2FFF7B9FF002025
:10098C00FFF7B6FF1020FFF7B3FF002414F0800F21
:10099C00ECD10020FFF7BAFF0134E4B2F6E738BD22
:1009AC0008B5AE20FFF7A4FF2020FFF7A1FF102011
:1009BC00FFF79EFFB020FFF79BFFC820FFF798FFC3
:1009CC000020FFF795FF1020FFF792FF4020FFF764
:1009DC008FFF8120FFF78CFFFF20FFF789FFA120FD
:1009EC00FFF786FFA620FFF783FFA820FFF780FF05
:1009FC003F20FFF77DFFA420FFF77AFFD320FFF7FE
:100A0C0077FF0020FFF774FFD520FFF771FFF02070
:100A1C00FFF76EFFD920FFF76BFF2220FFF768FF6F
:100A2C00DA20FFF765FF1220FFF762FFDB20FFF7EC
:100A3C005FFF2020FFF75CFF8D20FFF759FF14208C
:100A4C00FFF756FFAF20FFF753FFFFF78CFF08BDF2
:100A5C0010B504460E4B18784FF47A73B3FBF0F3D1
:100A6C000C4A1068B0FBF3F000F0A4F868B90F2C36
:100A7C0001D901200AE0002221464FF0FF3000F09E
:100A8C0057F8054B1C60002000E0012010BD00BF92
:100A9C0006000020000000200800002008B5074ACE
:100AAC00136843F010031360032000F02FF80020AC
:100ABC00FFF7CEFFFFF750FC002008BD00200240DE
:100ACC00034A1168034B1B780B441360704700BF3B
:100ADC007811002006000020014B1868704700BFF9
:100AEC007811002038B50446FFF7F6FF0546B4F13F
:100AFC00FF3F02D0044B1B781C44FFF7EDFF401B5B
:100B0C00A042FAD338BD00BF06000020074AD368C4
:100B1C0023F4E0631B041B0C000200F4E0600343AD
:100B2C0043F0BF6343F40033D360704700ED00E043
:100B3C0030B4174BDB68C3F30223C3F10704042C56
:100B4C0028BF04241D1D062D18D9033B4FF0FF357B
:100B5C0005FA04F421EA0401994005FA03F322EAA8
:100B6C000303194300280BDB0901C9B200F16040F3
:100B7C0000F5614080F8001330BC70470023E5E7B6
:100B8C0000F00F000901C9B2024B1954F4E700BF81
:100B9C0000ED00E014ED00E0002807DB00F01F0280
:100BAC00400901239340024A42F82030704700BFAD
:100BBC0000E100E00138B0F1807F0AD2064B5860AA
:100BCC00064AF02182F823100020986007221A6050
:100BDC0070470120704700BF10E000E000ED00E01E
:100BEC0070B4066CC56B0124B4406C60046863601F
:100BFC004368102B05D0036899600368DA6070BCF9
:100C0C00704703689A600368D960F8E760B310B462
:100C1C0002460168154B0B441548A0FB03031B0946
:100C2C009B001364134BD363022382F821300868B2
:100C3C0020F47F5020F03000536894682343D4682C
:100C4C002343146923435469234394692343D4698C
:100C5C00234303430B6000209063012382F821306F
:100C6C0082F8200010BC704701207047F8FFFDBFD0
:100C7C00CDCCCCCC0000024038B5044690F8200016
:100C8C00012831D0012084F8200094F8210001289B
:100C9C0004D0002384F82030022038BD022084F8D0
:100CAC0021000020A0632568286820F0010028603E
:100CBC002046FFF795FFE36A5BB12268136843F0A7
:100CCC000E0313602268136843F0010313600020C5
:100CDC00E3E72268136823F00403136022681368A7
:100CEC0043F00A031360EDE70220D6E708B590F84D
:100CFC002130022B03D004238363012008BD02683A
:100D0C00136823F00E0313600268136823F00103C9
:100D1C0013600368194A934214D0143293421FD0C3
:100D2C00143293421ED0143293421ED0143293428A
:100D3C001ED01432934202D04FF0807203E04FF475
:100D4C00801200E001220E4B5A60012380F8213002
:100D5C00002380F82030436B6BB198470020CDE71F
:100D6C001022F0E74FF48072EDE74FF48052EAE77F
:100D7C004FF48032E7E70020C0E700BF08000240D4
:100D8C000000024038B5C36B1A6804682568016C12
:100D9C0004238B40134235D015F0040F32D0236856
:100DAC0013F0200F03D1236823F00403236003689E
:100DBC00434A934214D01432934218D014329342C3
:100DCC0017D01432934217D01432934217D01432E6
:100DDC00934202D04FF0806203E04FF4800200E0B7
:100DEC000422384B5A60C36A03B1984738BD40227D
:100DFC00F7E74FF48062F4E74FF48042F1E74FF4E9
:100E0C008022EEE702238B4013423CD015F0020FF8
:100E1C0039D0236813F0200F06D1236823F00A037E
:100E2C002360012380F821300368254A934214D0B3
:100E3C00143293421CD0143293421BD0143293427E
:100E4C001BD0143293421BD01432934202D04FF079
:100E5C00007203E04FF4001200E00222194B5A60BA
:100E6C00002380F82030836A002BBFD09847BDE761
:100E7C002022F3E74FF40072F0E74FF40052EDE755
:100E8C004FF40032EAE7082303FA01F11142ADD026
:100E9C0015F0080FAAD0236823F00E032360026C10
:100EAC00C16B012303FA02F24A60836380F821309C
:100EBC00002380F82030036B002B97D0984795E7E0
:100ECC000800024000000240F0B482B000252C461D
:100EDC00A3E07F4FBB4210D007D97E4FBB420CD052
:100EEC0007F58037BB4208D013E0A7F58017BB424B
:100EFC0003D007F57027BB4207D18B68002B58D065
:100F0C00012B51D04261082503E0A7F58017BB42A5
:100F1C00F3D0FF2E4FD88446FF2E4FD8A200DCF81A
:100F2C0000300F27974023EA070305FA02F2134318
:100F3C00CCF800304B6813F0805F6DD0664B9A692B
:100F4C0042F001029A619B6903F001030193019B3A
:100F5C00A208971C614B53F8273004F00307BF001D
:100F6C004FF00F0C0CFA07FC23EA0C0C5C4B98426C
:100F7C002AD003F58063984200F08A8003F58063E1
:100F8C00984200F0878003F5806398421AD00423BE
:100F9C001BE0CD68BDE7CD680435BAE7CD680835F0
:100FAC00B7E7CD680C35B4E702610825B1E7002539
:100FBC00AFE70425ADE700F1040CADE7A4F108029E
:100FCC009200ACE7032300E00023BB4043EA0C0390
:100FDC000232424F47F822304B6813F4803F5BD00B
:100FEC00404A1368334313604B6813F4003F59D0E5
:100FFC003C4A5368334353604B6813F4801F57D0FB
:10100C00384A9368334393604B6813F4001F55D0F0
:10101C00344AD3681E43D66001340B6833FA04F2A9
:10102C0052D00122A24003EA020632EA0303F3D1B2
:10103C004B68122B3FF64DAF122B3FF66AAF01A750
:10104C0057F823F0070F00089F0F0008A90F00089E
:10105C00BB0F00081F0F00081F0F00081F0F000810
:10106C001F0F00081F0F00081F0F00081F0F00089C
:10107C001F0F00081F0F00081F0F00081F0F00088C
:10108C001F0F00081F0F0008A30F0008AF0F000868
:10109C0001239AE7022398E7124A136823EA06030E
:1010AC001360A1E70F4A536823EA06035360A3E7D2
:1010BC000C4A936823EA06039360A5E7094AD368B0
:1010CC0023EA0606D660A7E702B0F0BC704700BF63
:1010DC0000002210000031100010024000000140FE
:1010EC0000080140000401400AB101617047090485
:1010FC000161704782B0084B1B68084AA2FB0323AE
:10110C005B0A00FB03F3019300BF019B5A1E019283
:10111C00002BF9D102B0704700000020D34D6210B3
:10112C00002800F0F18170B582B00446036813F01A
:10113C00010F2CD0AA4B5B6803F00C03042B1DD0C1
:10114C00A74B5B6803F00C03082B12D06368B3F554
:10115C00803F41D0002B55D103F1804303F504337C
:10116C001A6822F480321A601A6822F480221A60FB
:10117C0037E09B4B5B6813F4803FE7D0984B1B68C0
:10118C0013F4003F03D06368002B00F0BF81236889
:10119C0013F0020F75D0924B5B6813F00C0F5FD0FD
:1011AC008F4B5B6803F00C03082B54D02369002B86
:1011BC0000F089808B4B01221A60FFF78DFC0546ED
:1011CC00874B1B6813F0020F74D1FFF785FC401B93
:1011DC000228F5D903209EE1814A136843F4803339
:1011EC001360636843B3FFF777FC05467C4B1B68C1
:1011FC0013F4003FCBD1FFF76FFC401B6428F5D9EB
:10120C00032088E1B3F5A02F09D0754B1A6822F49E
:10121C0080321A601A6822F480221A60E1E703F126
:10122C008043A3F53C331A6842F480221A601A6892
:10123C0042F480321A60D4E7FFF74EFC0546684B47
:10124C001B6813F4003FA2D0FFF746FC401B642838
:10125C00F5D903205FE1624B5B6813F4803FA5D1A5
:10126C005F4B1B6813F0020F03D02369012B40F076
:10127C004F815B4A136823F0F803616943EAC103A9
:10128C001360236813F0080F32D0A369002B45D0EC
:10129C00554B01221A60FFF71FFC0546504B5B6A49
:1012AC0013F0020F21D1FFF717FC401B0228F5D9D0
:1012BC00032030E14A4A136823F0F803616943EADA
:1012CC00C1031360DDE7474B00221A60FFF704FCF3
:1012DC000546434B1B6813F0020FD2D0FFF7FCFB03
:1012EC00401B0228F5D9032015E10120FFF702FF6E
:1012FC00236813F0040F00F09780394BDB6913F06F
:10130C00805F1DD1364BDA6942F08052DA61DB69BD
:10131C0003F080530193019B012512E0324B002214
:10132C001A60FFF7D9FB05462D4B5B6A13F0020FD1
:10133C00DED0FFF7D1FB401B0228F5D90320EAE0F1
:10134C0000252A4B1B6813F4807F11D0E368012B16
:10135C0022D0002B38D103F1804303F504331A6AF1
:10136C0022F001021A621A6A22F004021A6218E0D0
:10137C001E4A136843F480731360FFF7ADFB0646F7
:10138C001A4B1B6813F4807FE0D1FFF7A5FB801B81
:10139C006428F5D90320BEE0114A136A43F0010317
:1013AC001362E36873B3FFF797FB06460C4B1B6A9B
:1013BC0013F0020F37D1FFF78FFB801B41F28833FC
:1013CC009842F3D90320A6E0052B11D0044B1A6ADE
:1013DC0022F001021A621A6A22F004021A62E0E791
:1013EC000010024000004242800442420070004063
:1013FC004D4B1A6A42F004021A621A6A42F0010258
:10140C001A62CEE7FFF768FB0646474B1B6A13F0E0
:10141C00020F08D0FFF760FB801B41F28833984223
:10142C00F3D9032077E0E5B9E369002B72D03E4A8B
:10143C00526802F00C02082A56D0022B17D03B4BF4
:10144C0000221A60FFF748FB0446374B1B6813F069
:10145C00007F47D0FFF740FB001B0228F5D9032083
:10146C0059E0314AD36923F08053D361DCE72F4B29
:10147C0000221A60FFF730FB05462B4B1B6813F05C
:10148C00007F06D0FFF728FB401B0228F5D903206C
:10149C0041E0236AB3F5803F1AD023494B6823F40B
:1014AC007413226A606A024313434B601F4B012280
:1014BC001A60FFF711FB04461B4B1B6813F0007FEF
:1014CC000ED1FFF709FB001B0228F5D9032022E0FF
:1014DC00154A536823F40033A1680B435360DCE7CF
:1014EC00002018E0002016E0012B16D00E4B5B6894
:1014FC0003F48031226A914211D103F47013626AB1
:10150C0093420ED1002006E001207047012002E03A
:10151C00012000E0002002B070BD0120FBE701209B
:10152C00F9E70120F7E700BF0010024060004242DB
:10153C0086B0164B0FCB0DF1180C0CE90F0040F2D6
:10154C000123ADF80430124B5B6803F00C02082A3F
:10155C0002D0104806B07047C3F38342624412F8BD
:10156C00102C13F4803F0CD0094B5B68C3F3404341
:10157C00634413F8143C074800FB02F0B0FBF3F093
:10158C00E8E7054800FB02F0E4E700BF642100082F
:10159C000010024000127A0000093D00002800F003
:1015AC00A08070B50D460446524B1B6803F0070330
:1015BC008B420BD24F4A136823F007030B43136083
:1015CC00136803F007038B4240F08D80236813F0FF
:1015DC00020F17D013F0040F04D0474A536843F49A
:1015EC00E0635360236813F0080F04D0424A536839
:1015FC0043F460535360404A536823F0F003A168EE
:10160C000B435360236813F0010F31D06368012B37
:10161C0020D0022B25D0384A126812F0020F64D069
:10162C0035494A6822F0030213434B60FFF754FA22
:10163C000646314B5B6803F00C036268B3EB820F18
:10164C0016D0FFF749FA801B41F288339842F0D943
:10165C00032045E0284A126812F4003FE0D1012033
:10166C003EE0254A126812F0007FD9D1012037E004
:10167C00204B1B6803F00703AB420AD91D4A1368C1
:10168C0023F007032B431360136803F00703AB42EB
:10169C002DD1236813F0040F06D0174A536823F496
:1016AC00E063E1680B435360236813F0080F07D025
:1016BC00114A536823F46053216943EAC103536010
:1016CC00FFF736FF0C4B5B68C3F303130B4AD35C79
:1016DC00D8400B4B18600B4B1868FFF7B9F900207A
:1016EC0070BD012070470120FAE70120F8E70120C6
:1016FC00F6E700BF00200240001002404C21000819
:10170C000000002008000020014B1868704700BF43
:10171C000000002008B5FFF7F7FF044B5B68C3F32C
:10172C000223034AD35CD84008BD00BF001002401E
:10173C005C21000808B5FFF7E7FF044B5B68C3F3B7
:10174C00C223034AD35CD84008BD00BF001002403E
:10175C005C2100082DE9F04782B005468846174603
:10176C001E46FFF7B9F90A9B1B1A03EB0609FFF794
:10177C00B3F982462A4B1B68C3F3CB3309FB03F343
:10178C0001932B689C6838EA04030CBF01240024E5
:10179C00BC4240D0B6F1FF3FF3D0FFF79DF9A0EB70
:1017AC000A0048450AD2B9F1000F07D0019A02B1DC
:1017BC004A46019B013B01939146E2E72A68536834
:1017CC0023F0E00353606B68B3F5827F0BD0AB6AF8
:1017DC00B3F5005F14D0012385F85130002385F850
:1017EC005030032018E0AB68B3F5004F02D0B3F5CE
:1017FC00806FECD12A68136823F040031360E6E78E
:10180C002A68136823F4005313602A68136843F49E
:10181C0000531360DFE7002002B0BDE8F08700BF83
:10182C000000002010B582B004460B460092002246
:10183C008021FFF78FFF08B902B010BD636D43F034
:10184C00200363650320F7E7002856D010B5044643
:10185C00436A33B94368B3F5827F05D00023C36173
:10186C0002E00023036143610023A36294F851302A
:10187C00002B3CD0022384F851302268136823F0EB
:10188C0040031360636803F48273A26802F4044299
:10189C001343E26802F400621343226902F002026D
:1018AC001343626902F001021343A26902F400724D
:1018BC001343E26902F038021343226A02F08002F9
:1018CC001343A26A02F40052216813430B60638B2A
:1018DC00226803F0040353602268D36923F4006385
:1018EC00D36100206065012384F8513010BD84F869
:1018FC0050302046FEF7F6FCBCE7012070472DE97E
:10190C00F04383B01D4690F85030012B00F0CC8092
:10191C00044688469146012380F85030FFF7DCF8E6
:10192C00074694F85160F6B2012E40F0AA80B8F147
:10193C00000F00F0A780B9F1000F00F0A380032383
:10194C0084F8513000236365C4F83080A4F83490D7
:10195C00A4F83690A363A387E38763642364A36826
:10196C00B3F5004F1ED023681A6812F0400F03D154
:10197C001A6842F040021A60E368B3F5006F1CD09D
:10198C00636813B1B9F1010F52D1226B236812783D
:10199C001A73236B01332363E38E9BB2013B9BB21F
:1019AC00E38645E02268136823F040031360226845
:1019BC00136843F480431360D5E7636813B1B9F13E
:1019CC00010F16D1226B23681288DA60236B023365
:1019DC002363E38E9BB2013B9BB2E38609E0FFF7E6
:1019EC007BF8C01BA84202D3B5F1FF3F54D1002DA8
:1019FC0054D0E38E9BB2002B2ED023689A6812F041
:101A0C00020FECD0226B1288DA60236B0233236353
:101A1C00E38E9BB2013B9BB2E386EAE7FFF75CF8EF
:101A2C00C01BA84202D3B5F1FF3F39D1002D39D0EC
:101A3C00E38E9BB283B123689A6812F0020FEDD04B
:101A4C00226B12781A73236B01332363E28E92B2EA
:101A5C00013A92B2E286EBE73A4629462046FFF776
:101A6C00E1FE08B120236365A36833B901932368B1
:101A7C00DA6801929B680193019B636D13B9002690
:101A8C0000E00226012384F85130002384F8503002
:101A9C00304603B0BDE8F0830326F3E70326F1E7F5
:101AAC000326EFE70326EDE70226F1E70268D36889
:101ABC0023F0C003D360202380F8393070470268CC
:101ACC00D36823F49073D3600268536923F0010345
:101ADC005361202380F83A30704790F83930DBB2EC
:101AEC00212B01D0022070478368B3F5805F17D09B
:101AFC00036A5A1C02621A7803685A60C38C9BB240
:101B0C00013B9BB2C3844BB90268D36823F08003BA
:101B1C00D3600268D36843F04003D3600020704761
:101B2C000369002BE4D1036A1B880268C3F3080322
:101B3C005360036A02330362E0E7000010B5044609
:101B4C000268136923F44053C1680B431361836823
:101B5C000269134342691A430168CB6823F4B053FA
:101B6C0023F00C031343CB600268536923F44073D6
:101B7C0081690B4353610268124B9A421FD0FFF7E5
:101B8C00C9FD00EB800303EB830362689200B3FB97
:101B9C00F2F20D48A0FB02314909642303FB112327
:101BAC001B013233A0FB03235B0903F0F00202EBB1
:101BBC00011203F00F03216813448B6010BDFFF773
:101BCC00B9FDDEE7003801401F85EB5158B310B565
:101BDC00044690F839300BB3242384F8393022684A
:101BEC00D36823F40053D3602046FFF7A7FF226885
:101BFC00136923F4904313612268536923F02A0379
:101C0C0053612268D36843F40053D3600020E0632F
:101C1C00202384F8393084F83A3010BD80F83830FD
:101C2C00FEF7FEFBD8E701207047000030B583B00B
:101C3C00044690F83A00C0B220283CD100293DD08F
:101C4C00002A3DD094F83830012B3BD0012384F886
:101C5C003830A162A2850025E563222384F83A304E
:101C6C00636B19489862636B1848D862636B1848A9
:101C7C001863636B5D63206813460A46011D606B35
:101C8C00FEF7FAFF019523681A6801925A680192CF
:101C9C00019A84F83850DA6842F48072DA6022686B
:101CAC00536943F0010353612268536943F04003C5
:101CBC005361284600E0022003B030BD0120FBE751
:101CCC000120F9E70220F7E7FD1C0008D11D0008F0
:101CDC00DD1D0008704708B50168CA6822F0400293
:101CEC00CA60202280F83920FFF7F4FF002008BDDD
:101CFC0008B50346406A1B681B6813F0200F13D10C
:101D0C000023C3850268D36823F48073D360026810
:101D1C00536923F0010353610268536923F04003B4
:101D2C005361202380F83A30FEF7B5FA08BD08B5A8
:101D3C0090F83A30DBB2222B41D18368B3F5805F47
:101D4C0014D0826AB3F5805F02D0E3B90369D3B9CA
:101D5C0003685B681370836A01338362C38D9BB223
:101D6C00013B9BB2C385A3B1002008BD0269002AC8
:101D7C00E7D1826A03685B68C3F308031380836A44
:101D8C0002338362EAE703685B6803F07F03137036
:101D9C00E1E70268D36823F02003D3600268D368BC
:101DAC0023F48073D3600268536923F001035361F9
:101DBC00202380F83A30FEF76EFA0020D5E7022097
:101DCC00D3E7704708B5406AFFF7FBFF08BD7047C3
:101DDC0010B5446A23685A6994F83930DBB2212B68
:101DEC0010D023685A6902F0400294F83A30DBB202
:101DFC00222B11D0E36B43F01003E3632046FFF773
:101E0C00E6FF10BD02F08002002AEAD00023E38432
:101E1C002046FFF74BFEE4E7002AEBD00023E385D6
:101E2C002046FFF74CFEE5E710B504460268136840
:101E3C00D168526913F00F0005D113F0200F02D0B6
:101E4C0011F0200F13D128B112F0010213D111F4AB
:101E5C00907F10D113F0800F02D011F0800F6CD155
:101E6C0013F0400F02D011F0400F6AD110BD204684
:101E7C00FFF75DFFFAE713F0010F06D011F4807F36
:101E8C0003D0E06B40F00100E06313F0040F04D0CA
:101E9C001AB1E06B40F00200E06313F0020F04D0C3
:101EAC001AB1E06B40F00400E06313F0080F07D0A8
:101EBC0011F0200F00D11AB1E26B42F00802E2637C
:101ECC00E26B002AD2D013F0200F02D011F0200FB9
:101EDC0021D123685B6903F04003E26B12F0080F19
:101EEC0000D123B32046FFF7EAFD23685A6912F0AC
:101EFC00400F18D05A6922F040025A61636B73B1DB
:101F0C00124A5A63606BFEF7F1FE0028AED0606B8C
:101F1C00436B9847AAE72046FFF709FFD9E720460D
:101F2C00FFF755FFA2E72046FFF751FF9EE720463B
:101F3C00FFF74DFF0023E36398E72046FFF7CDFD45
:101F4C0094E72046FFF7C7FE90E700BF5D1F00082F
:101F5C0008B5406A0023C385C384FFF738FF08BD6A
:101F6C0070B50D4E0D4D761BB61006D0002455F8ED
:101F7C00043B01349847A642F9D1094E094D00F0B3
:101F8C00D3F8761BB61006D0002455F8043B013468
:101F9C009847A642F9D170BD7C2100087C2100082D
:101FAC00842100087C210008F0B4860746D0541E1A
:101FBC00002A3CD00346CAB201E0013C37D303F8F7
:101FCC00012B9D07F9D1032C2AD9CDB245EA052561
:101FDC000F2C45EA054534D9A4F1100222F00F0C60
:101FEC0003F120071609674403F1100242E9045576
:101FFC0042E902551032BA42F8D1721C14F00C0F9F
:10200C0003EB021204F00F0613D0331F23F003036B
:10201C000433134442F8045B9342FBD106F00304EF
:10202C002CB1CAB21C4403F8012B9C42FBD1F0BC6E
:10203C00704734461346002CF3D1F8E71446034698
:10204C00C1E71A462646E0E7024B13B1024800F0FE
:10205C0005B87047000000007520000800230146F9
:10206C001A46184600F01AB838B5084B084D5B1BD9
:10207C009C1007D0043B1D44013C55F8043998478B
:10208C00002CF9D1BDE8384000F054B88821000884
:10209C0084210008704700BF704700BF2DE9F0474E
:1020AC00DFF880A00646DAF8000098460F46914605
:1020BC00FFF7F0FF1A4B1B68D3F8484124B365684F
:1020CC001F2D26DC5EB96B1C0235DAF8000063604C
:1020DC0044F82570FFF7E0FF0020BDE8F0870123EE
:1020EC0004EB8501C1F88890D4F88821AB401A43E1
:1020FC00022EC4F88821C1F80881E4D1D4F88C21CF
:10210C001343C4F88C31DEE703F5A674C3F84841D9
:10211C00D5E7DAF80000FFF7BFFF4FF0FF30DCE740
:10212C007821000838040020F8B500BFF8BC08BCC2
:10213C009E467047F8B500BFF8BC08BC9E46704779
:10214C00000000000000000001020304060708095B
:10215C00000000000102030402030405060708093D
:10216C000A0B0C0D0E0F10100000000010000020C8
:08217C005520000831010008A4
:042184000D01000841
:102188000024F4000101010010000000000000001C
:1021980000000000FC02002064030020CC030020A3
:1021A8000000000000000000000000000000000027
:1021B8000000000000000000000000000000000017
:1021C8000000000000000000000000000000000007
:1021D80000000000000000000000000000000000F7
:1021E80000000000000000000000000000000000E7
:1021F80000000000000000000000000000000000D7
:1022080000000000000000000000000000000000C6
:1022180000000000000000000000000000000000B6
:1022280000000000000000000000000000000000A6
:102238000000000000000000010000000000000095
:102248000E33CDAB34126DE6ECDE05000B0000005A
:102258000000000000000000000000000000000076
:102268000000000000000000000000000000000066
:102278000000000000000000000000000000000056
:102288000000000000000000000000000000000046
:0C25B80000000000000000007C1100206A
:040000050800051DCD
:00000001FF
